{
  "contractName": "CrowdFunding",
  "abi": [
    {
      "inputs": [
        {
          "internalType": "address payable",
          "name": "beneficiary",
          "type": "address"
        },
        {
          "internalType": "uint256",
          "name": "goal",
          "type": "uint256"
        }
      ],
      "name": "newCampaign",
      "outputs": [
        {
          "internalType": "uint256",
          "name": "campaignID",
          "type": "uint256"
        }
      ],
      "stateMutability": "nonpayable",
      "type": "function"
    },
    {
      "inputs": [
        {
          "internalType": "uint256",
          "name": "campaignID",
          "type": "uint256"
        }
      ],
      "name": "contribute",
      "outputs": [],
      "stateMutability": "payable",
      "type": "function",
      "payable": true
    },
    {
      "inputs": [
        {
          "internalType": "uint256",
          "name": "campaignID",
          "type": "uint256"
        }
      ],
      "name": "checkGoalReached",
      "outputs": [
        {
          "internalType": "bool",
          "name": "reached",
          "type": "bool"
        }
      ],
      "stateMutability": "nonpayable",
      "type": "function"
    }
  ],
  "bytecode": "0x608060405234801561001057600080fd5b5061055b806100206000396000f3fe6080604052600436106100345760003560e01c80635b2329d414610039578063c1cbbca714610076578063f7572cf314610092575b600080fd5b34801561004557600080fd5b50610060600480360381019061005b919061032c565b6100cf565b60405161006d9190610374565b60405180910390f35b610090600480360381019061008b919061032c565b61018b565b005b34801561009e57600080fd5b506100b960048036038101906100b491906103ed565b61026d565b6040516100c6919061043c565b60405180910390f35b600080600160008481526020019081526020016000209050806001015481600301541015610101576000915050610186565b600081600301549050600082600301819055508160000160009054906101000a900473ffffffffffffffffffffffffffffffffffffffff1673ffffffffffffffffffffffffffffffffffffffff166108fc829081150290604051600060405180830381858888f1935050505015801561017e573d6000803e3d6000fd5b506001925050505b919050565b600060016000838152602001908152602001600020905060405180604001604052803373ffffffffffffffffffffffffffffffffffffffff168152602001348152508160040160008360020160008154809291906101e890610486565b91905055815260200190815260200160002060008201518160000160006101000a81548173ffffffffffffffffffffffffffffffffffffffff021916908373ffffffffffffffffffffffffffffffffffffffff160217905550602082015181600101559050503481600301600082825461026291906104cf565b925050819055505050565b600080600081548092919061028190610486565b9190505590506000600160008381526020019081526020016000209050838160000160006101000a81548173ffffffffffffffffffffffffffffffffffffffff021916908373ffffffffffffffffffffffffffffffffffffffff1602179055508281600101819055505092915050565b600080fd5b6000819050919050565b610309816102f6565b811461031457600080fd5b50565b60008135905061032681610300565b92915050565b600060208284031215610342576103416102f1565b5b600061035084828501610317565b91505092915050565b60008115159050919050565b61036e81610359565b82525050565b60006020820190506103896000830184610365565b92915050565b600073ffffffffffffffffffffffffffffffffffffffff82169050919050565b60006103ba8261038f565b9050919050565b6103ca816103af565b81146103d557600080fd5b50565b6000813590506103e7816103c1565b92915050565b60008060408385031215610404576104036102f1565b5b6000610412858286016103d8565b925050602061042385828601610317565b9150509250929050565b610436816102f6565b82525050565b6000602082019050610451600083018461042d565b92915050565b7f4e487b7100000000000000000000000000000000000000000000000000000000600052601160045260246000fd5b6000610491826102f6565b91507fffffffffffffffffffffffffffffffffffffffffffffffffffffffffffffffff8214156104c4576104c3610457565b5b600182019050919050565b60006104da826102f6565b91506104e5836102f6565b9250827fffffffffffffffffffffffffffffffffffffffffffffffffffffffffffffffff0382111561051a57610519610457565b5b82820190509291505056fea2646970667358221220803d2501318ca1f2333c9695864ab744af1eeeac5b8573c4f01a069c4f68e04364736f6c63430008090033",
  "immutableReferences": {},
  "source": "// SPDX-License-Identifier: GPL-3.0\npragma solidity >=0.6.0 <0.9.0;\n\ncontract CrowdFunding {\n    // Defines a new type with two fields.\n    struct Funder {\n        address addr;\n        uint256 amount;\n    }\n\n    struct Campaign {\n        address payable beneficiary;\n        uint256 fundingGoal;\n        uint256 numFunders;\n        uint256 amount;\n        mapping(uint256 => Funder) funders;\n    }\n\n    uint256 numCampaigns;\n    mapping(uint256 => Campaign) campaigns;\n\n    function newCampaign(address payable beneficiary, uint256 goal)\n        public\n        returns (uint256 campaignID)\n    {\n        campaignID = numCampaigns++; // campaignID is return variable\n        // We cannot use \"campaigns[campaignID] = Campaign(beneficiary, goal, 0, 0)\"\n        // because the RHS creates a memory-struct \"Campaign\" that contains a mapping.\n        Campaign storage c = campaigns[campaignID];\n        c.beneficiary = beneficiary;\n        c.fundingGoal = goal;\n    }\n\n    function contribute(uint256 campaignID) public payable {\n        Campaign storage c = campaigns[campaignID];\n        // Creates a new temporary memory struct, initialised with the given values\n        // and copies it over to storage.\n        // Note that you can also use Funder(msg.sender, msg.value) to initialise.\n        c.funders[c.numFunders++] = Funder({\n            addr: msg.sender,\n            amount: msg.value\n        });\n        c.amount += msg.value;\n    }\n\n    function checkGoalReached(uint256 campaignID)\n        public\n        returns (bool reached)\n    {\n        Campaign storage c = campaigns[campaignID];\n        if (c.amount < c.fundingGoal) return false;\n        uint256 amount = c.amount;\n        c.amount = 0;\n        c.beneficiary.transfer(amount);\n        return true;\n    }\n}\n",
  "sourcePath": "/home/josue/workspace/CryptoProjects/blockchain-bootcamp/crowdfunding/contracts/CrowdFunding.sol",
  "compiler": {
    "name": "solc",
    "version": "0.8.9+commit.e5eed63a.Emscripten.clang"
  },
  "schemaVersion": "3.4.3",
  "updatedAt": "2021-10-27T12:49:05.983Z",
  "networkType": "ethereum",
  "devdoc": {
    "kind": "dev",
    "methods": {},
    "version": 1
  },
  "userdoc": {
    "kind": "user",
    "methods": {},
    "version": 1
  }
}